:100000006F00700A0000000060040000140400008B
:1000100000000000000000000000000000000000E0
:1000200000000000000000000000000000000000D0
:100030001404000000000000140400000000000090
:100040001404000014040000140400001404000050
:100050001404000014040000140400001404000040
:100060001404000014040000140400001404000030
:100070001404000014040000140400001404000020
:100080001404000014040000140400001404000010
:100090001404000014040000140400000000000018
:1000A000634E050263C305042E86AA857D5515C2DD
:1000B00085466378B6006356C00006068606E36C84
:1000C000B6FE014563E4C500918D558D858205829C
:1000D000F5FA82808682C93F2E8582823305A04050
:1000E0006347B000B305B040C1B7B305B0408682E6
:1000F000653F3305A0408282868263C7050063495D
:1001000005005D372E858282B305B040E35B05FEB6
:100110003305A040513F3305B04082820000B7074D
:1001200000E083A7470F8280370700E08327470F4F
:10013000211106CA22C826C693F7070C9306000CA5
:10014000638AD70A02C42E84F1E18327470F89C747
:1001500093F7070891E3E137D24022854244B24445
:1001600061018280B30794401D476353F7009D47A8
:10017000370708000507370600E08326460F93057A
:10018000460F13F306086311030691C62AC23EC048
:1001900079371245824734000D47B685634EF70420
:1001A000A246370700E00D46232CD70EB306950074
:1001B000014783C2060005073383E500230053008F
:1001C0006385E7008506E316C7FE138747001367BC
:1001D00007F82304E100A246370700E0BE94232A73
:1001E000D70EE3C184F88DBF7D1741FB9C4193E797
:1001F000070C9CC101448DB73386E4002A96034660
:10020000060005078506A38FC6FE49BF8144D1BFFE
:10021000011106CE22CC26CA02C02A8363570500EC
:1002200089E685473303A0403EC01304100619C277
:1002300013041004BA8459141A853AC81AC22EC677
:100240001AC4493DA5472243B24542479376F50F6C
:1002500063E1A7069386060393F6F60F93871400CF
:100260002380D4001A853AC83EC62EC4353D924636
:10027000A245B24742472A8363FBB602824699C62B
:100280009306D0022380D700938724003385E7406C
:100290009356F501AA962380070085860146FD172F
:1002A000634BD600F2406244D24405618280BE8432
:1002B00061B7A29655B7B305C70083C2070003C351
:1002C000050005062380550023806700C9BF370756
:1002D00000E08327470F93F70708E5FFB72730783B
:1002E00093878708232AF70E370600E071472543D6
:1002F000F1558327460F93F70708E5FFB357E5004D
:1003000093F6F700930700036354D3009307700537
:10031000B697A20793E75708232AF60E7117E31A38
:10032000B7FC82800143ADC263D4B600B6850543F5
:100330008D8EBA87B303D700B382F340634850046D
:1003400063D306008146BA9681473386F5406343FE
:10035000C00463D305008145B6953385E540630449
:1003600003026372B7029307A002A38FF5FE938680
:10037000F5FF637AD700238FF5FE9386E5FF63745C
:10038000D700A38EF5FE8280AE865DB78507A38F6A
:10039000C7FE5DB73306F500834206003386F600DC
:1003A00085072300560055B7511122C206C42E847A
:1003B000A53BA2402285124431018280B72702402A
:1003C000054798C3B71702403707080123A2070063
:1003D0001307170898C337079F0098C737170240BD
:1003E0001C4393966700E3DD06FE5C43B7160240AC
:1003F000F19B93E727005CC32147DC42B18BE39E6E
:10040000E7FEB70700E023AC070E1307000823AA96
:10041000E70E8280732510345D3D73250030453D25
:10042000732530346D35732520345535370700E09A
:100430008327470F93F70708E5FF8567938757A83A
:10044000232AF70E370700E08327470F93F70708A3
:10045000E5FFB7B7AAAA938737A8232AF70E01A00A
:10046000371702401C47B7068000D58F1CC7AA87E4
:1004700003C7070001E73385A74082808507CDBF0A
:10048000130141FAA6C886CCA2CA2AC02EC2B284E1
:10049000B68702C803C7040013841400A30FE10049
:1004A00001EBE64056444245C6441301C105828033
:1004B00093065002630FD7003EC41246824785451B
:1004C0001305F1018297A284C247AA973EC8A247AA
:1004D000D1B783C614001306000313872400A30FAB
:1004E000D100130400036390C608BA840146014793
:1004F000254511A8931627008504369783C6F4FF77
:1005000006072E970546938506FD13F3F50FE37353
:1005100065FE19C2A30FD1003AC661466353E600D7
:1005200032C69305C00601466398B60083C6040030
:1005300005468504A30FD1008346F10193054006CB
:100540006383B60663E4D502130780056380E60A79
:1005500013073006638DE60AA9D612463EC48545C8
:100560001305F101BDA01304000241B79305500724
:10057000638BB60213068007638AC606130630072C
:10058000E39DC6FC3ACC138747009C433AC43E85A2
:100590003ECAF13D6247D247AA8559C7B2463818CC
:1005A00022863E851DA0138747003AC415C6938650
:1005B000B6F8181093B6160088430146A945893944
:1005C000B24638182286AA850810A93B1246AA8589
:1005D000281882478297CDBD130750076395E60020
:1005E00018108546D1BF18108146F9B78843138784
:1005F0004700138686FA3AC485461810133616004B
:10060000C1453931B246AA853818228675BF13878D
:1006100047009C433AC4B246A30FF1003818228623
:1006200085451305F10155B712463E855DB7511159
:1006300006C422C226C0AA841D3D2A84AA85268516
:10064000E534056585451305C59CF93CA2401305B5
:10065000140012448244310182801301C1FD32CA68
:100660002A862EC836CC814514081305803A06C662
:100670003ACE3ED036C02935B240130141028280C5
:10068000411106C622C426C2153B371702405C43FF
:10069000B7F600E093E7070C5CC3B7F700E09847B4
:1006A000B7474900938707E03E979C46998FE3CE72
:1006B00007FE0565130545939D3F370767453724BA
:1006C000024013073712B797EFCD58C09387B79AF8
:1006D0005CC058D05CD00C48856413850494B53F49
:1006E0001C48216713070708F98F26C089CB0565C9
:1006F000130585952D3F05651305C5960D3F3737C5
:100700000008544310430564B73500081305C49727
:10071000A937B724024082478C4813850794353F98
:10072000B70702009CC837370008D8C8938707046A
:100730009CC8B7F700E09447372702405C47858B99
:10074000F5FFB7F700E090474C470565158E130598
:10075000C599213705651305059DD13DB7340008BE
:10076000D44090400565B73500081305059EF53562
:100770009840FD5785446307F70005651305C59F3D
:100780007D358144B7270240416798CB3707090080
:1007900098CB37370008D8CBB7F700E09447372716
:1007A00002405C47858BF5FFB7F700E090474C4768
:1007B0000565158E1305C5A24D35B7F700E037174F
:1007C000CDAB8C4737E5CB5893074723B72602407C
:1007D0003703050013074724139627002A9623287A
:1007E000F67223A86600D046058A75FE8507E39554
:1007F000E7FE37F700E01C470565130505A6B3853E
:10080000B740A13DC16793870704B72602409CCA41
:1008100037F700E01447B7270240D847058B75FF2C
:1008200037F700E01047CC470565158E130585A8FE
:100830002D35B7270240CC4705651305C5AB313DC3
:10084000B7370008D4439043B73500081305C49761
:100850002935B73700089843B717CDAB938747239F
:100860006307F70005651305C59FD133814437340D
:10087000000805670C40130547AD1104F93BB73775
:100880000008938707040567E316F4FE89E8856589
:100890009385C59205651305C5ADC13301A0856576
:1008A00093854592C5BF970100209381A1F51381DF
:1008B000010013050008731005308D4617F5FFFF82
:1008C00013054574558D7310553017F5FF1F13052B
:1008D000657397F5FF1F9385E57201466356B50072
:1008E00010C11105E34EB5FE170500001305852064
:1008F00097F5FF1F9385057117F6FF1F1306867086
:100900006388C500144194C111059105E39AC5FEA1
:10091000B7F700E0154798C3930700687390173442
:100920007300203050415353000000004641494CB1
:10093000000000005374617274696E67000000006B
:10094000464C4153482D3E43544C52203D202530C7
:10095000386C780A00000000466C6173682073747C
:10096000696C6C206C6F636B65640000466C61732E
:1009700068204C6F636B6564210000004D656D6FEE
:1009800072792061743A202530386C783A2025300D
:10099000386C78202530386C780A0000464C41537A
:1009A000482D3E5354415452203D202530386C7818
:1009B000202D3E202564206379636C657320666F6B
:1009C0007220706167652065726173650A000000BE
:1009D000457261736520636F6D706C6574650000AE
:1009E0004D656D6F72792061742025703A20253035
:1009F000386C78202530386C780A00005741524E08
:100A0000494E472F4641494C5552453A20466C6164
:100A100073682067656E6572616C206572617375BD
:100A20007265206661696C6564000000464C415344
:100A3000482D3E5354415452203D202530386C7887
:100A4000202D3E202564206379636C657320666FDA
:100A500072206275666665722072657365740A003D
:100A600057726974653A202564206379636C6573F5
:100A700020666F722077726974696E672064617492
:100A80006120696E0A000000464C4153482D3E53D8
:100A900054415452203D202530386C78202D3E2082
:100AA0002564206379636C657320666F72207061C2
:100AB00067652077726974650A000000464C4153EF
:100AC000482D3E5354415452203D202530386C78F7
:100AD0000A0000002530386C782000000A0A5465AE
:100AE000737420726573756C74733A2025730A00F1
:00000001FF
